{
  "_format": "hh-sol-artifact-1",
  "contractName": "Monopoly",
  "sourceName": "contracts/Monopoly.sol",
  "abi": [
    {
      "anonymous": false,
      "inputs": [
        {
          "indexed": true,
          "internalType": "uint256",
          "name": "gameId",
          "type": "uint256"
        },
        {
          "indexed": true,
          "internalType": "address",
          "name": "creator",
          "type": "address"
        },
        {
          "indexed": false,
          "internalType": "uint256",
          "name": "playerCount",
          "type": "uint256"
        },
        {
          "indexed": false,
          "internalType": "uint256",
          "name": "totalFee",
          "type": "uint256"
        }
      ],
      "name": "GameCreated",
      "type": "event"
    },
    {
      "anonymous": false,
      "inputs": [
        {
          "indexed": true,
          "internalType": "uint256",
          "name": "gameId",
          "type": "uint256"
        },
        {
          "indexed": false,
          "internalType": "uint256",
          "name": "playerCount",
          "type": "uint256"
        }
      ],
      "name": "GameStarted",
      "type": "event"
    },
    {
      "anonymous": false,
      "inputs": [
        {
          "indexed": true,
          "internalType": "uint256",
          "name": "gameId",
          "type": "uint256"
        },
        {
          "indexed": true,
          "internalType": "address",
          "name": "player",
          "type": "address"
        },
        {
          "indexed": false,
          "internalType": "uint256",
          "name": "fee",
          "type": "uint256"
        }
      ],
      "name": "PlayerJoined",
      "type": "event"
    },
    {
      "inputs": [],
      "name": "ENTRY_FEE",
      "outputs": [
        {
          "internalType": "uint256",
          "name": "",
          "type": "uint256"
        }
      ],
      "stateMutability": "view",
      "type": "function"
    },
    {
      "inputs": [],
      "name": "MAX_PLAYERS",
      "outputs": [
        {
          "internalType": "uint256",
          "name": "",
          "type": "uint256"
        }
      ],
      "stateMutability": "view",
      "type": "function"
    },
    {
      "inputs": [
        {
          "internalType": "uint256",
          "name": "maxPlayers",
          "type": "uint256"
        }
      ],
      "name": "createGame",
      "outputs": [
        {
          "internalType": "uint256",
          "name": "",
          "type": "uint256"
        }
      ],
      "stateMutability": "payable",
      "type": "function"
    },
    {
      "inputs": [
        {
          "internalType": "uint256",
          "name": "",
          "type": "uint256"
        }
      ],
      "name": "games",
      "outputs": [
        {
          "internalType": "uint256",
          "name": "gameId",
          "type": "uint256"
        },
        {
          "internalType": "address",
          "name": "creator",
          "type": "address"
        },
        {
          "internalType": "uint256",
          "name": "playerCount",
          "type": "uint256"
        },
        {
          "internalType": "uint256",
          "name": "maxPlayers",
          "type": "uint256"
        },
        {
          "internalType": "uint256",
          "name": "entryFee",
          "type": "uint256"
        },
        {
          "internalType": "bool",
          "name": "isActive",
          "type": "bool"
        }
      ],
      "stateMutability": "view",
      "type": "function"
    },
    {
      "inputs": [
        {
          "internalType": "uint256",
          "name": "gameId",
          "type": "uint256"
        }
      ],
      "name": "getGame",
      "outputs": [
        {
          "internalType": "uint256",
          "name": "_gameId",
          "type": "uint256"
        },
        {
          "internalType": "address",
          "name": "_creator",
          "type": "address"
        },
        {
          "internalType": "uint256",
          "name": "_playerCount",
          "type": "uint256"
        },
        {
          "internalType": "uint256",
          "name": "_maxPlayers",
          "type": "uint256"
        },
        {
          "internalType": "uint256",
          "name": "_entryFee",
          "type": "uint256"
        },
        {
          "internalType": "bool",
          "name": "_isActive",
          "type": "bool"
        },
        {
          "internalType": "address[]",
          "name": "_players",
          "type": "address[]"
        }
      ],
      "stateMutability": "view",
      "type": "function"
    },
    {
      "inputs": [
        {
          "internalType": "address",
          "name": "player",
          "type": "address"
        }
      ],
      "name": "getPlayerGames",
      "outputs": [
        {
          "internalType": "uint256[]",
          "name": "",
          "type": "uint256[]"
        }
      ],
      "stateMutability": "view",
      "type": "function"
    },
    {
      "inputs": [
        {
          "internalType": "uint256",
          "name": "gameId",
          "type": "uint256"
        },
        {
          "internalType": "address",
          "name": "player",
          "type": "address"
        }
      ],
      "name": "isPlayerInGame",
      "outputs": [
        {
          "internalType": "bool",
          "name": "",
          "type": "bool"
        }
      ],
      "stateMutability": "view",
      "type": "function"
    },
    {
      "inputs": [
        {
          "internalType": "uint256",
          "name": "gameId",
          "type": "uint256"
        }
      ],
      "name": "joinGame",
      "outputs": [],
      "stateMutability": "payable",
      "type": "function"
    },
    {
      "inputs": [],
      "name": "nextGameId",
      "outputs": [
        {
          "internalType": "uint256",
          "name": "",
          "type": "uint256"
        }
      ],
      "stateMutability": "view",
      "type": "function"
    },
    {
      "inputs": [
        {
          "internalType": "address",
          "name": "",
          "type": "address"
        },
        {
          "internalType": "uint256",
          "name": "",
          "type": "uint256"
        }
      ],
      "name": "playerGames",
      "outputs": [
        {
          "internalType": "uint256",
          "name": "",
          "type": "uint256"
        }
      ],
      "stateMutability": "view",
      "type": "function"
    },
    {
      "inputs": [
        {
          "internalType": "uint256",
          "name": "gameId",
          "type": "uint256"
        }
      ],
      "name": "startGame",
      "outputs": [],
      "stateMutability": "nonpayable",
      "type": "function"
    },
    {
      "inputs": [],
      "name": "withdrawFees",
      "outputs": [],
      "stateMutability": "nonpayable",
      "type": "function"
    },
    {
      "stateMutability": "payable",
      "type": "receive"
    }
  ],
  "bytecode": "0x60806040526001600055348015601457600080fd5b50611a3b806100246000396000f3fe6080604052600436106100ab5760003560e01c806348e837b91161006457806348e837b91461022b578063a2f77bcc1461025b578063b135bbb01461029e578063e5ed1d59146102c9578063efaa55a0146102f2578063f6d361cc1461030e576100eb565b80630a5694c2146100f05780630d3b404f1461012d578063117a5b901461016a578063129daf84146101ac5780634411b3eb146101e9578063476343ee14610214576100eb565b366100eb576040517f08c379a00000000000000000000000000000000000000000000000000000000081526004016100e290611149565b60405180910390fd5b600080fd5b3480156100fc57600080fd5b5061011760048036038101906101129190611202565b610339565b6040516101249190611251565b60405180910390f35b34801561013957600080fd5b50610154600480360381019061014f919061126c565b61036a565b60405161016191906112c7565b60405180910390f35b34801561017657600080fd5b50610191600480360381019061018c91906112e2565b61047c565b6040516101a39695949392919061131e565b60405180910390f35b3480156101b857600080fd5b506101d360048036038101906101ce919061137f565b6104e5565b6040516101e0919061146a565b60405180910390f35b3480156101f557600080fd5b506101fe61057c565b60405161020b9190611251565b60405180910390f35b34801561022057600080fd5b50610229610581565b005b610245600480360381019061024091906112e2565b6105ca565b6040516102529190611251565b60405180910390f35b34801561026757600080fd5b50610282600480360381019061027d91906112e2565b6108ab565b604051610295979695949392919061154a565b60405180910390f35b3480156102aa57600080fd5b506102b3610a65565b6040516102c09190611251565b60405180910390f35b3480156102d557600080fd5b506102f060048036038101906102eb91906112e2565b610a6b565b005b61030c600480360381019061030791906112e2565b610cc6565b005b34801561031a57600080fd5b506103236110bb565b6040516103309190611251565b60405180910390f35b6002602052816000526040600020818154811061035557600080fd5b90600052602060002001600091509150505481565b600082600073ffffffffffffffffffffffffffffffffffffffff166001600083815260200190815260200160002060010160009054906101000a900473ffffffffffffffffffffffffffffffffffffffff1673ffffffffffffffffffffffffffffffffffffffff1603610412576040517f08c379a00000000000000000000000000000000000000000000000000000000081526004016104099061160c565b60405180910390fd5b6001600085815260200190815260200160002060070160008473ffffffffffffffffffffffffffffffffffffffff1673ffffffffffffffffffffffffffffffffffffffff16815260200190815260200160002060009054906101000a900460ff1691505092915050565b60016020528060005260406000206000915090508060000154908060010160009054906101000a900473ffffffffffffffffffffffffffffffffffffffff16908060020154908060030154908060040154908060050160009054906101000a900460ff16905086565b6060600260008373ffffffffffffffffffffffffffffffffffffffff1673ffffffffffffffffffffffffffffffffffffffff16815260200190815260200160002080548060200260200160405190810160405280929190818152602001828054801561057057602002820191906000526020600020905b81548152602001906001019080831161055c575b50505050509050919050565b600881565b3373ffffffffffffffffffffffffffffffffffffffff166108fc479081150290604051600060405180830381858888f193505050501580156105c7573d6000803e3d6000fd5b50565b600066b1a2bc2ec500003414610615576040517f08c379a000000000000000000000000000000000000000000000000000000000815260040161060c90611678565b60405180910390fd5b60028210158015610627575060088211155b610666576040517f08c379a000000000000000000000000000000000000000000000000000000000815260040161065d906116e4565b60405180910390fd5b600080600081548092919061067a90611733565b9190505590506000600160008381526020019081526020016000209050818160000181905550338160010160006101000a81548173ffffffffffffffffffffffffffffffffffffffff021916908373ffffffffffffffffffffffffffffffffffffffff16021790555083816003018190555066b1a2bc2ec50000816004018190555060008160050160006101000a81548160ff02191690831515021790555080600601339080600181540180825580915050600190039060005260206000200160009091909190916101000a81548173ffffffffffffffffffffffffffffffffffffffff021916908373ffffffffffffffffffffffffffffffffffffffff16021790555060018160070160003373ffffffffffffffffffffffffffffffffffffffff1673ffffffffffffffffffffffffffffffffffffffff16815260200190815260200160002060006101000a81548160ff02191690831515021790555060018160020181905550600260003373ffffffffffffffffffffffffffffffffffffffff1673ffffffffffffffffffffffffffffffffffffffff1681526020019081526020016000208290806001815401808255809150506001900390600052602060002001600090919091909150553373ffffffffffffffffffffffffffffffffffffffff16827f7ed9b48d83e08a25a1572b27a365dfb386da7860c996e684e541e3433b792147600166b1a2bc2ec500006040516108999291906117c0565b60405180910390a38192505050919050565b600080600080600080606087600073ffffffffffffffffffffffffffffffffffffffff166001600083815260200190815260200160002060010160009054906101000a900473ffffffffffffffffffffffffffffffffffffffff1673ffffffffffffffffffffffffffffffffffffffff160361095c576040517f08c379a00000000000000000000000000000000000000000000000000000000081526004016109539061160c565b60405180910390fd5b6000600160008b8152602001908152602001600020905080600001548160010160009054906101000a900473ffffffffffffffffffffffffffffffffffffffff168260020154836003015484600401548560050160009054906101000a900460ff168660060180805480602002602001604051908101604052809291908181526020018280548015610a4357602002820191906000526020600020905b8160009054906101000a900473ffffffffffffffffffffffffffffffffffffffff1673ffffffffffffffffffffffffffffffffffffffff16815260200190600101908083116109f9575b5050505050905098509850985098509850985098505050919395979092949650565b60005481565b80600073ffffffffffffffffffffffffffffffffffffffff166001600083815260200190815260200160002060010160009054906101000a900473ffffffffffffffffffffffffffffffffffffffff1673ffffffffffffffffffffffffffffffffffffffff1603610b11576040517f08c379a0000000000000000000000000000000000000000000000000000000008152600401610b089061160c565b60405180910390fd5b816001600082815260200190815260200160002060050160009054906101000a900460ff1615610b76576040517f08c379a0000000000000000000000000000000000000000000000000000000008152600401610b6d90611835565b60405180910390fd5b60006001600085815260200190815260200160002090508060010160009054906101000a900473ffffffffffffffffffffffffffffffffffffffff1673ffffffffffffffffffffffffffffffffffffffff163373ffffffffffffffffffffffffffffffffffffffff1614610c1f576040517f08c379a0000000000000000000000000000000000000000000000000000000008152600401610c16906118a1565b60405180910390fd5b600281600201541015610c67576040517f08c379a0000000000000000000000000000000000000000000000000000000008152600401610c5e9061190d565b60405180910390fd5b60018160050160006101000a81548160ff021916908315150217905550837fa2dfaa3573b86004ec9d4d4abe5068d942579c59da4da8cd0d9e45e71a393bc18260020154604051610cb89190611251565b60405180910390a250505050565b80600073ffffffffffffffffffffffffffffffffffffffff166001600083815260200190815260200160002060010160009054906101000a900473ffffffffffffffffffffffffffffffffffffffff1673ffffffffffffffffffffffffffffffffffffffff1603610d6c576040517f08c379a0000000000000000000000000000000000000000000000000000000008152600401610d639061160c565b60405180910390fd5b816001600082815260200190815260200160002060050160009054906101000a900460ff1615610dd1576040517f08c379a0000000000000000000000000000000000000000000000000000000008152600401610dc890611835565b60405180910390fd5b82336001600083815260200190815260200160002060070160008273ffffffffffffffffffffffffffffffffffffffff1673ffffffffffffffffffffffffffffffffffffffff16815260200190815260200160002060009054906101000a900460ff1615610e74576040517f08c379a0000000000000000000000000000000000000000000000000000000008152600401610e6b90611979565b60405180910390fd5b66b1a2bc2ec500003414610ebd576040517f08c379a0000000000000000000000000000000000000000000000000000000008152600401610eb490611678565b60405180910390fd5b60006001600087815260200190815260200160002090508060030154816002015410610f1e576040517f08c379a0000000000000000000000000000000000000000000000000000000008152600401610f15906119e5565b60405180910390fd5b80600601339080600181540180825580915050600190039060005260206000200160009091909190916101000a81548173ffffffffffffffffffffffffffffffffffffffff021916908373ffffffffffffffffffffffffffffffffffffffff16021790555060018160070160003373ffffffffffffffffffffffffffffffffffffffff1673ffffffffffffffffffffffffffffffffffffffff16815260200190815260200160002060006101000a81548160ff021916908315150217905550806002016000815480929190610ff290611733565b9190505550600260003373ffffffffffffffffffffffffffffffffffffffff1673ffffffffffffffffffffffffffffffffffffffff1681526020019081526020016000208690806001815401808255809150506001900390600052602060002001600090919091909150553373ffffffffffffffffffffffffffffffffffffffff16867f03dfbe1fcb4e2d61f3b4a0c93d8f814c92250618b3387f396cc9fc9fafe2c20366b1a2bc2ec500006040516110ab9190611251565b60405180910390a3505050505050565b66b1a2bc2ec5000081565b600082825260208201905092915050565b7f5573652063726561746547616d65206f72206a6f696e47616d652066756e637460008201527f696f6e7300000000000000000000000000000000000000000000000000000000602082015250565b60006111336024836110c6565b915061113e826110d7565b604082019050919050565b6000602082019050818103600083015261116281611126565b9050919050565b600080fd5b600073ffffffffffffffffffffffffffffffffffffffff82169050919050565b60006111998261116e565b9050919050565b6111a98161118e565b81146111b457600080fd5b50565b6000813590506111c6816111a0565b92915050565b6000819050919050565b6111df816111cc565b81146111ea57600080fd5b50565b6000813590506111fc816111d6565b92915050565b6000806040838503121561121957611218611169565b5b6000611227858286016111b7565b9250506020611238858286016111ed565b9150509250929050565b61124b816111cc565b82525050565b60006020820190506112666000830184611242565b92915050565b6000806040838503121561128357611282611169565b5b6000611291858286016111ed565b92505060206112a2858286016111b7565b9150509250929050565b60008115159050919050565b6112c1816112ac565b82525050565b60006020820190506112dc60008301846112b8565b92915050565b6000602082840312156112f8576112f7611169565b5b6000611306848285016111ed565b91505092915050565b6113188161118e565b82525050565b600060c0820190506113336000830189611242565b611340602083018861130f565b61134d6040830187611242565b61135a6060830186611242565b6113676080830185611242565b61137460a08301846112b8565b979650505050505050565b60006020828403121561139557611394611169565b5b60006113a3848285016111b7565b91505092915050565b600081519050919050565b600082825260208201905092915050565b6000819050602082019050919050565b6113e1816111cc565b82525050565b60006113f383836113d8565b60208301905092915050565b6000602082019050919050565b6000611417826113ac565b61142181856113b7565b935061142c836113c8565b8060005b8381101561145d57815161144488826113e7565b975061144f836113ff565b925050600181019050611430565b5085935050505092915050565b60006020820190508181036000830152611484818461140c565b905092915050565b600081519050919050565b600082825260208201905092915050565b6000819050602082019050919050565b6114c18161118e565b82525050565b60006114d383836114b8565b60208301905092915050565b6000602082019050919050565b60006114f78261148c565b6115018185611497565b935061150c836114a8565b8060005b8381101561153d57815161152488826114c7565b975061152f836114df565b925050600181019050611510565b5085935050505092915050565b600060e08201905061155f600083018a611242565b61156c602083018961130f565b6115796040830188611242565b6115866060830187611242565b6115936080830186611242565b6115a060a08301856112b8565b81810360c08301526115b281846114ec565b905098975050505050505050565b7f47616d6520646f6573206e6f7420657869737400000000000000000000000000600082015250565b60006115f66013836110c6565b9150611601826115c0565b602082019050919050565b60006020820190508181036000830152611625816115e9565b9050919050565b7f496e636f727265637420656e7472792066656500000000000000000000000000600082015250565b60006116626013836110c6565b915061166d8261162c565b602082019050919050565b6000602082019050818103600083015261169181611655565b9050919050565b7f496e76616c696420706c6179657220636f756e74000000000000000000000000600082015250565b60006116ce6014836110c6565b91506116d982611698565b602082019050919050565b600060208201905081810360008301526116fd816116c1565b9050919050565b7f4e487b7100000000000000000000000000000000000000000000000000000000600052601160045260246000fd5b600061173e826111cc565b91507fffffffffffffffffffffffffffffffffffffffffffffffffffffffffffffffff82036117705761176f611704565b5b600182019050919050565b6000819050919050565b6000819050919050565b60006117aa6117a56117a08461177b565b611785565b6111cc565b9050919050565b6117ba8161178f565b82525050565b60006040820190506117d560008301856117b1565b6117e26020830184611242565b9392505050565b7f47616d6520697320616c72656164792061637469766500000000000000000000600082015250565b600061181f6016836110c6565b915061182a826117e9565b602082019050919050565b6000602082019050818103600083015261184e81611812565b9050919050565b7f4f6e6c792063726561746f722063616e2073746172742067616d650000000000600082015250565b600061188b601b836110c6565b915061189682611855565b602082019050919050565b600060208201905081810360008301526118ba8161187e565b9050919050565b7f4e656564206174206c65617374203220706c6179657273000000000000000000600082015250565b60006118f76017836110c6565b9150611902826118c1565b602082019050919050565b60006020820190508181036000830152611926816118ea565b9050919050565b7f506c6179657220616c726561647920696e2067616d6500000000000000000000600082015250565b60006119636016836110c6565b915061196e8261192d565b602082019050919050565b6000602082019050818103600083015261199281611956565b9050919050565b7f47616d652069732066756c6c0000000000000000000000000000000000000000600082015250565b60006119cf600c836110c6565b91506119da82611999565b602082019050919050565b600060208201905081810360008301526119fe816119c2565b905091905056fea26469706673582212202a49599e76d9165acae4fc32c46051244e76bccc8bc33343b404169bd50dab5b64736f6c634300081c0033",
  "linkReferences": {},
  "deployedLinkReferences": {}
}